{
  "_format": "hh-sol-artifact-1",
  "contractName": "PeaceColor",
  "sourceName": "contracts/PeaceColor.sol",
  "abi": [
    {
      "anonymous": false,
      "inputs": [
        {
          "indexed": false,
          "internalType": "uint8",
          "name": "red",
          "type": "uint8"
        },
        {
          "indexed": false,
          "internalType": "uint8",
          "name": "green",
          "type": "uint8"
        },
        {
          "indexed": false,
          "internalType": "uint8",
          "name": "blue",
          "type": "uint8"
        },
        {
          "indexed": false,
          "internalType": "string",
          "name": "name",
          "type": "string"
        }
      ],
      "name": "ColorAdded",
      "type": "event"
    },
    {
      "inputs": [
        {
          "internalType": "uint8",
          "name": "red",
          "type": "uint8"
        },
        {
          "internalType": "uint8",
          "name": "green",
          "type": "uint8"
        },
        {
          "internalType": "uint8",
          "name": "blue",
          "type": "uint8"
        },
        {
          "internalType": "string",
          "name": "description",
          "type": "string"
        }
      ],
      "name": "addColor",
      "outputs": [],
      "stateMutability": "nonpayable",
      "type": "function"
    },
    {
      "inputs": [
        {
          "internalType": "uint256",
          "name": "",
          "type": "uint256"
        }
      ],
      "name": "colors",
      "outputs": [
        {
          "internalType": "uint8",
          "name": "red",
          "type": "uint8"
        },
        {
          "internalType": "uint8",
          "name": "green",
          "type": "uint8"
        },
        {
          "internalType": "uint8",
          "name": "blue",
          "type": "uint8"
        },
        {
          "internalType": "string",
          "name": "name",
          "type": "string"
        }
      ],
      "stateMutability": "view",
      "type": "function"
    },
    {
      "inputs": [],
      "name": "getColorOrder",
      "outputs": [
        {
          "components": [
            {
              "internalType": "uint8",
              "name": "red",
              "type": "uint8"
            },
            {
              "internalType": "uint8",
              "name": "green",
              "type": "uint8"
            },
            {
              "internalType": "uint8",
              "name": "blue",
              "type": "uint8"
            },
            {
              "internalType": "string",
              "name": "name",
              "type": "string"
            }
          ],
          "internalType": "struct PeaceColor.Color[]",
          "name": "",
          "type": "tuple[]"
        }
      ],
      "stateMutability": "view",
      "type": "function"
    },
    {
      "inputs": [],
      "name": "getColors",
      "outputs": [
        {
          "components": [
            {
              "internalType": "uint8",
              "name": "red",
              "type": "uint8"
            },
            {
              "internalType": "uint8",
              "name": "green",
              "type": "uint8"
            },
            {
              "internalType": "uint8",
              "name": "blue",
              "type": "uint8"
            },
            {
              "internalType": "string",
              "name": "name",
              "type": "string"
            }
          ],
          "internalType": "struct PeaceColor.Color[]",
          "name": "",
          "type": "tuple[]"
        }
      ],
      "stateMutability": "view",
      "type": "function"
    },
    {
      "inputs": [
        {
          "internalType": "uint256",
          "name": "n",
          "type": "uint256"
        }
      ],
      "name": "getLastColors",
      "outputs": [
        {
          "components": [
            {
              "internalType": "uint8",
              "name": "red",
              "type": "uint8"
            },
            {
              "internalType": "uint8",
              "name": "green",
              "type": "uint8"
            },
            {
              "internalType": "uint8",
              "name": "blue",
              "type": "uint8"
            },
            {
              "internalType": "string",
              "name": "name",
              "type": "string"
            }
          ],
          "internalType": "struct PeaceColor.Color[]",
          "name": "",
          "type": "tuple[]"
        }
      ],
      "stateMutability": "view",
      "type": "function"
    }
  ],
  "bytecode": "0x6080604052348015600f57600080fd5b506111ae8061001f6000396000f3fe608060405234801561001057600080fd5b50600436106100575760003560e01c8063597f27671461005c57806387c79d1d1461008c578063bd11f69d146100aa578063c1fdc267146100dd578063c4ddbff4146100fb575b600080fd5b610076600480360381019061007191906108cd565b610117565b6040516100839190610acb565b60405180910390f35b6100946102f4565b6040516100a19190610acb565b60405180910390f35b6100c460048036038101906100bf91906108cd565b61043c565b6040516100d49493929190610b46565b60405180910390f35b6100e561052b565b6040516100f29190610acb565b60405180910390f35b61011560048036038101906101109190610cf3565b6106fa565b005b60606000808054905090508083111561012e578092505b60008367ffffffffffffffff81111561014a57610149610bc8565b5b60405190808252806020026020018201604052801561018357816020015b610170610852565b8152602001906001900390816101685790505b50905060005b848110156102e9576000816001856101a19190610da5565b6101ab9190610da5565b815481106101bc576101bb610dd9565b5b90600052602060002090600202016040518060800160405290816000820160009054906101000a900460ff1660ff1660ff1681526020016000820160019054906101000a900460ff1660ff1660ff1681526020016000820160029054906101000a900460ff1660ff1660ff16815260200160018201805461023c90610e37565b80601f016020809104026020016040519081016040528092919081815260200182805461026890610e37565b80156102b55780601f1061028a576101008083540402835291602001916102b5565b820191906000526020600020905b81548152906001019060200180831161029857829003601f168201915b5050505050815250508282815181106102d1576102d0610dd9565b5b60200260200101819052508080600101915050610189565b508092505050919050565b60606000805480602002602001604051908101604052809291908181526020016000905b8282101561043357838290600052602060002090600202016040518060800160405290816000820160009054906101000a900460ff1660ff1660ff1681526020016000820160019054906101000a900460ff1660ff1660ff1681526020016000820160029054906101000a900460ff1660ff1660ff1681526020016001820180546103a290610e37565b80601f01602080910402602001604051908101604052809291908181526020018280546103ce90610e37565b801561041b5780601f106103f05761010080835404028352916020019161041b565b820191906000526020600020905b8154815290600101906020018083116103fe57829003601f168201915b50505050508152505081526020019060010190610318565b50505050905090565b6000818154811061044c57600080fd5b90600052602060002090600202016000915090508060000160009054906101000a900460ff16908060000160019054906101000a900460ff16908060000160029054906101000a900460ff16908060010180546104a890610e37565b80601f01602080910402602001604051908101604052809291908181526020018280546104d490610e37565b80156105215780601f106104f657610100808354040283529160200191610521565b820191906000526020600020905b81548152906001019060200180831161050457829003601f168201915b5050505050905084565b606060008080549050905060008167ffffffffffffffff81111561055257610551610bc8565b5b60405190808252806020026020018201604052801561058b57816020015b610578610852565b8152602001906001900390816105705790505b50905060005b828110156106f1576000816001856105a99190610da5565b6105b39190610da5565b815481106105c4576105c3610dd9565b5b90600052602060002090600202016040518060800160405290816000820160009054906101000a900460ff1660ff1660ff1681526020016000820160019054906101000a900460ff1660ff1660ff1681526020016000820160029054906101000a900460ff1660ff1660ff16815260200160018201805461064490610e37565b80601f016020809104026020016040519081016040528092919081815260200182805461067090610e37565b80156106bd5780601f10610692576101008083540402835291602001916106bd565b820191906000526020600020905b8154815290600101906020018083116106a057829003601f168201915b5050505050815250508282815181106106d9576106d8610dd9565b5b60200260200101819052508080600101915050610591565b50809250505090565b60328151111561073f576040517f08c379a000000000000000000000000000000000000000000000000000000000815260040161073690610eda565b60405180910390fd5b600060405180608001604052808660ff1681526020018560ff1681526020018460ff16815260200183815250908060018154018082558091505060019003906000526020600020906002020160009091909190915060008201518160000160006101000a81548160ff021916908360ff16021790555060208201518160000160016101000a81548160ff021916908360ff16021790555060408201518160000160026101000a81548160ff021916908360ff160217905550606082015181600101908161080c91906110a6565b5050507fd822bc402d7fbccb707bebc71f5a6c6c759b841718675be2fc4473efac389146848484846040516108449493929190610b46565b60405180910390a150505050565b6040518060800160405280600060ff168152602001600060ff168152602001600060ff168152602001606081525090565b6000604051905090565b600080fd5b600080fd5b6000819050919050565b6108aa81610897565b81146108b557600080fd5b50565b6000813590506108c7816108a1565b92915050565b6000602082840312156108e3576108e261088d565b5b60006108f1848285016108b8565b91505092915050565b600081519050919050565b600082825260208201905092915050565b6000819050602082019050919050565b600060ff82169050919050565b61093c81610926565b82525050565b600081519050919050565b600082825260208201905092915050565b60005b8381101561097c578082015181840152602081019050610961565b60008484015250505050565b6000601f19601f8301169050919050565b60006109a482610942565b6109ae818561094d565b93506109be81856020860161095e565b6109c781610988565b840191505092915050565b60006080830160008301516109ea6000860182610933565b5060208301516109fd6020860182610933565b506040830151610a106040860182610933565b5060608301518482036060860152610a288282610999565b9150508091505092915050565b6000610a4183836109d2565b905092915050565b6000602082019050919050565b6000610a61826108fa565b610a6b8185610905565b935083602082028501610a7d85610916565b8060005b85811015610ab95784840389528151610a9a8582610a35565b9450610aa583610a49565b925060208a01995050600181019050610a81565b50829750879550505050505092915050565b60006020820190508181036000830152610ae58184610a56565b905092915050565b610af681610926565b82525050565b600082825260208201905092915050565b6000610b1882610942565b610b228185610afc565b9350610b3281856020860161095e565b610b3b81610988565b840191505092915050565b6000608082019050610b5b6000830187610aed565b610b686020830186610aed565b610b756040830185610aed565b8181036060830152610b878184610b0d565b905095945050505050565b610b9b81610926565b8114610ba657600080fd5b50565b600081359050610bb881610b92565b92915050565b600080fd5b600080fd5b7f4e487b7100000000000000000000000000000000000000000000000000000000600052604160045260246000fd5b610c0082610988565b810181811067ffffffffffffffff82111715610c1f57610c1e610bc8565b5b80604052505050565b6000610c32610883565b9050610c3e8282610bf7565b919050565b600067ffffffffffffffff821115610c5e57610c5d610bc8565b5b610c6782610988565b9050602081019050919050565b82818337600083830152505050565b6000610c96610c9184610c43565b610c28565b905082815260208101848484011115610cb257610cb1610bc3565b5b610cbd848285610c74565b509392505050565b600082601f830112610cda57610cd9610bbe565b5b8135610cea848260208601610c83565b91505092915050565b60008060008060808587031215610d0d57610d0c61088d565b5b6000610d1b87828801610ba9565b9450506020610d2c87828801610ba9565b9350506040610d3d87828801610ba9565b925050606085013567ffffffffffffffff811115610d5e57610d5d610892565b5b610d6a87828801610cc5565b91505092959194509250565b7f4e487b7100000000000000000000000000000000000000000000000000000000600052601160045260246000fd5b6000610db082610897565b9150610dbb83610897565b9250828203905081811115610dd357610dd2610d76565b5b92915050565b7f4e487b7100000000000000000000000000000000000000000000000000000000600052603260045260246000fd5b7f4e487b7100000000000000000000000000000000000000000000000000000000600052602260045260246000fd5b60006002820490506001821680610e4f57607f821691505b602082108103610e6257610e61610e08565b5b50919050565b7f4465736372697074696f6e206d7573742062652035302063686172616374657260008201527f73206f72206c6573730000000000000000000000000000000000000000000000602082015250565b6000610ec4602983610afc565b9150610ecf82610e68565b604082019050919050565b60006020820190508181036000830152610ef381610eb7565b9050919050565b60008190508160005260206000209050919050565b60006020601f8301049050919050565b600082821b905092915050565b600060088302610f5c7fffffffffffffffffffffffffffffffffffffffffffffffffffffffffffffffff82610f1f565b610f668683610f1f565b95508019841693508086168417925050509392505050565b6000819050919050565b6000610fa3610f9e610f9984610897565b610f7e565b610897565b9050919050565b6000819050919050565b610fbd83610f88565b610fd1610fc982610faa565b848454610f2c565b825550505050565b600090565b610fe6610fd9565b610ff1818484610fb4565b505050565b5b818110156110155761100a600082610fde565b600181019050610ff7565b5050565b601f82111561105a5761102b81610efa565b61103484610f0f565b81016020851015611043578190505b61105761104f85610f0f565b830182610ff6565b50505b505050565b600082821c905092915050565b600061107d6000198460080261105f565b1980831691505092915050565b6000611096838361106c565b9150826002028217905092915050565b6110af82610942565b67ffffffffffffffff8111156110c8576110c7610bc8565b5b6110d28254610e37565b6110dd828285611019565b600060209050601f83116001811461111057600084156110fe578287015190505b611108858261108a565b865550611170565b601f19841661111e86610efa565b60005b8281101561114657848901518255600182019150602085019450602081019050611121565b86831015611163578489015161115f601f89168261106c565b8355505b6001600288020188555050505b50505050505056fea264697066735822122079ffafb57009acfeada4b79bb7f57c3caea192affd182b484af6ae8c1fd74e5564736f6c634300081c0033",
  "linkReferences": {},
  "deployedLinkReferences": {}
}